:020000040800F2
:1000000000500020B5060008930700088D0700087F
:100010008D0700088D0700088D070008000000000C
:10002000000000000000000000000000930700082E
:1000300093070008000000009307000893070008DA
:100040008D0700088D0700088D0700088D07000840
:100050008D0700088D0700088D0700088D07000830
:100060008D0700088D0700088D0700088D07000820
:100070008D0700088D0700088D0700088D07000810
:100080008D0700088D0700088D0700088D07000800
:100090008D0700088D0700088D0700088D070008F0
:1000A0008D0700088D0700088D0700088D070008E0
:1000B0008D0700088D0700088D0700088D070008D0
:1000C0008D0700088D0700088D0700088D070008C0
:1000D0008D0700088D0700088D0700088D070008B0
:1000E0008D0700088D0700088D0700088D070008A0
:1000F0008D0700088D0700088D0700088D07000890
:100100008D0700088D0700088D0700088D0700087F
:100110008D0700088D0700088D0700088D0700086F
:100120008D0700088D0700088D0700088D0700085F
:100130008D0700088D0700088D0700088D0700084F
:100140008D0700088D0700088D0700088D0700083F
:1001500080B584B000AF00F0C7F940F2023000F083
:100160000FF8064B7B604FF40063BB6000233B73CA
:100170003B1D184600F013FBFEE700BF00080140DE
:1001800080B483B000AF0346FB80FB885B099BB261
:1001900003F1804303F504331A68FB8803F01F035F
:1001A000012101FA03F31846FB885B099BB203F1B6
:1001B000804303F50433194642EA00030B6000BF95
:1001C0000C37BD4680BC704780B485B000AF786006
:1001D000094B1B68FB60FB6823F00703FB60FA68B0
:1001E0007B681343FB60044AFB68136000BF14374D
:1001F000BD4680BC704700BF0020024080B483B081
:1002000000AF0346FB71FB79062B57D801A252F8C9
:1002100023F000BF3102000845020008590200081F
:100220006D0200088102000895020008A90200087A
:10023000254B1B6803F00073002B14BF0123002320
:10024000DBB23CE0204B1B6803F00063002B14BFC3
:1002500001230023DBB232E01B4B1B6803F0005389
:10026000002B14BF01230023DBB228E0164B1B68D0
:1002700003F40033002B14BF01230023DBB21EE084
:10028000114B1B6803F00203002B14BF0123002352
:10029000DBB214E00D4B1B6803F00203002B14BF0C
:1002A00001230023DBB20AE0094B1B6803F00203C1
:1002B000002B14BF01230023DBB200E0002318460B
:1002C0000C37BD4680BC7047001002402010024031
:1002D0002410024080B582B000AF0346FB7100BF1E
:1002E000FB791846FFF78AFF034683F00103DBB270
:1002F000002BF5D100BF0837BD4680BD80B483B068
:1003000000AF0346FB71FB79062B42D801A252F8DD
:1003100023F000BF310300083F0300084D0300082D
:100320005B030008690300087703000885030008E1
:100330001A4B1B68194A43F08073136029E0174B6E
:100340001B68164A43F08063136022E0134B1B685E
:10035000124A43F0805313601BE0104B1B680F4A96
:1003600043F48033136014E00C4B1B680B4A43F0DA
:10037000010313600DE00A4B1B68094A43F00103B7
:10038000136006E0074B1B68064A43F00103136045
:1003900000BF00BF0C37BD4680BC70470010024054
:1003A000201002402410024080B483B000AF786077
:1003B000064B1B6823F0030204497B6813430B6060
:1003C00000BF0C37BD4680BC704700BF0410024020
:1003D00080B483B000AF7860064B1B6823F47012C2
:1003E0007B689B04034913430B6000BF0C37BD4679
:1003F00080BC70470410024080B483B000AF7860C6
:10040000064B1B6823F480327B681B0403491343AB
:100410000B6000BF0C37BD4680BC70470410024023
:1004200080B483B000AF7860064B1B6823F40032C1
:100430007B685B04034913430B6000BF0C37BD4668
:1004400080BC70470410024080B483B000AF786075
:10045000064B1B6823F440427B689B03034913430C
:100460000B6000BF0C37BD4680BC704704100240D3
:1004700080B483B000AF7860064B1B6823F46052F1
:100480007B68DB02034913430B6000BF0C37BD469A
:1004900080BC70470410024080B483B000AF786025
:1004A000064B1B6823F4E0627B681B02034913437D
:1004B0000B6000BF0C37BD4680BC70470410024083
:1004C00080B483B000AF7860064B1B6823F0F00265
:1004D0007B681B01034913430B6000BF0C37BD460B
:1004E00080BC70470410024080B500AF0420FFF7C5
:1004F00005FF0420FFF7EEFE0020FFF755FF032065
:10050000FFF7FCFE0320FFF7E5FE0120FFF74CFF9D
:100510000020FFF7D5FF0320FFF796FF0420FFF729
:10052000BBFF0020FFF7A4FF0220FFF74DFE0720CE
:10053000FFF74EFF0120FFF75FFF0020FFF770FF7E
:100540000020FFF7DBFE0020FFF7C4FE0220FFF7CC
:100550002BFF054B054A1A60054B064A1A60064BED
:10056000024A1A6000BF80BD0800002000A24A04B1
:1005700000000020005125020400002080B489B052
:1005800000AF7860084611461A460346FB700B46DA
:10059000BB7013463B8000237B820023BB6100239A
:1005A0007B610023FB607B681B68BB617B68043355
:1005B0001B687B610023FB8346E03A88FB8B42FA91
:1005C00003F303F00103002B3AD0FB8B072B03D876
:1005D000FB8B9B009BB206E0FB8B03F57F5338330C
:1005E0009BB29B009BB27B82FB8B072B01D8BB6924
:1005F00000E07B69FB607B8A0F2202FA03F3DB4396
:100600001A46FB681340FB60FA787B8A9A40B978F7
:100610007B8A023301FA03F313431A46FB68134340
:10062000FB60FB8B072B01D8FB6800E0BB69BB615B
:10063000FB8B072B01D9FB6800E07B697B6100E045
:1006400000BFFB8B0133FB83FB8B0F2BB5D97B6882
:10065000BA691A607B6804331A467B69136000BF6D
:100660002437BD4680BC704780B483B000AF78604B
:100670000B467B807B6810331A467B88136000BF73
:100680000C37BD4680BC704780B483B000AF786043
:100690000B467B807B881A047B6810331A6000BF8E
:1006A0000C37BD4680BC704780B400AF00BFBD466C
:1006B00080BC704780B584B000AF294BFB60294BEC
:1006C000BB6009E0FB681A68BB681A60FB6804330A
:1006D000FB60BB680433BB60BB68234A9342F1D321
:1006E00004E0BB681A1DBA6000221A60BB681F4A8A
:1006F0009342F6D31E4B1B681D4A43F400731360EC
:10070000FFF7D2FF1B4B7B6005E07B681B689847B7
:100710007B6804337B607B68174A9342F5D3174BA1
:100720007B6005E07B681B6898477B6804337B60CF
:100730007B68134A9342F5D3FFF70AFD114B7B60A8
:1007400005E07B681B6898477B6804337B607B68A7
:100750000D4A9342F5D300BF1037BD4680BD00BFA0
:1007600010080008000000200C0000200C000020F1
:1007700014ED00E010080008100800081008000838
:1007800010080008100800081008000880B400AF26
:10079000FEE780B400AF00BFBD4680BC704780B5A7
:1007A00082B000AF78607B6818687B685B689BB23A
:1007B00000220221FFF7E2FE0021786800F004F831
:1007C00000BF0837BD4680BD80B582B000AF7860FD
:1007D0000B46FB707B681A7AFB781340DBB2002B68
:1007E00009D17B681A687B685B689BB21946104622
:1007F000FFF73AFF08E07B681A687B685B689BB28A
:1008000019461046FFF740FF00BF0837BD4680BDC0
:0C08100000127A0000127A0000127A0038
:04000005080006B534
:00000001FF
